{
  "contractName": "AuctionHouse",
  "abi": [
    {
      "constant": true,
      "inputs": [
        {
          "name": "",
          "type": "uint256"
        }
      ],
      "name": "auctions",
      "outputs": [
        {
          "name": "seller",
          "type": "address"
        },
        {
          "name": "contractAddress",
          "type": "address"
        },
        {
          "name": "recordId",
          "type": "string"
        },
        {
          "name": "title",
          "type": "string"
        },
        {
          "name": "description",
          "type": "string"
        },
        {
          "name": "startTimeStamp",
          "type": "uint256"
        },
        {
          "name": "expirationTimeStamp",
          "type": "uint256"
        },
        {
          "name": "status",
          "type": "uint8"
        },
        {
          "name": "startingPrice",
          "type": "uint256"
        },
        {
          "name": "reservePrice",
          "type": "uint256"
        },
        {
          "name": "currentBid",
          "type": "uint256"
        }
      ],
      "payable": false,
      "stateMutability": "view",
      "type": "function"
    },
    {
      "constant": true,
      "inputs": [
        {
          "name": "",
          "type": "address"
        },
        {
          "name": "",
          "type": "uint256"
        }
      ],
      "name": "auctionsBidOnByUser",
      "outputs": [
        {
          "name": "",
          "type": "uint256"
        }
      ],
      "payable": false,
      "stateMutability": "view",
      "type": "function"
    },
    {
      "constant": true,
      "inputs": [
        {
          "name": "",
          "type": "address"
        },
        {
          "name": "",
          "type": "uint256"
        }
      ],
      "name": "auctionsRunByUser",
      "outputs": [
        {
          "name": "",
          "type": "uint256"
        }
      ],
      "payable": false,
      "stateMutability": "view",
      "type": "function"
    },
    {
      "inputs": [],
      "payable": false,
      "stateMutability": "nonpayable",
      "type": "constructor"
    },
    {
      "anonymous": false,
      "inputs": [
        {
          "indexed": false,
          "name": "id",
          "type": "uint256"
        },
        {
          "indexed": false,
          "name": "title",
          "type": "string"
        },
        {
          "indexed": false,
          "name": "startingPrice",
          "type": "uint256"
        },
        {
          "indexed": false,
          "name": "reservePrice",
          "type": "uint256"
        }
      ],
      "name": "AuctionCreated",
      "type": "event"
    },
    {
      "anonymous": false,
      "inputs": [
        {
          "indexed": false,
          "name": "id",
          "type": "uint256"
        }
      ],
      "name": "AuctionActivated",
      "type": "event"
    },
    {
      "anonymous": false,
      "inputs": [
        {
          "indexed": false,
          "name": "id",
          "type": "uint256"
        }
      ],
      "name": "AuctionCancelled",
      "type": "event"
    },
    {
      "anonymous": false,
      "inputs": [
        {
          "indexed": false,
          "name": "auctionId",
          "type": "uint256"
        },
        {
          "indexed": false,
          "name": "bidder",
          "type": "address"
        },
        {
          "indexed": false,
          "name": "amount",
          "type": "uint256"
        }
      ],
      "name": "BidPlaced",
      "type": "event"
    },
    {
      "anonymous": false,
      "inputs": [
        {
          "indexed": false,
          "name": "auctionId",
          "type": "uint256"
        },
        {
          "indexed": false,
          "name": "winningBidder",
          "type": "address"
        },
        {
          "indexed": false,
          "name": "amount",
          "type": "uint256"
        }
      ],
      "name": "AuctionEndedWithWinner",
      "type": "event"
    },
    {
      "anonymous": false,
      "inputs": [
        {
          "indexed": false,
          "name": "auctionId",
          "type": "uint256"
        },
        {
          "indexed": false,
          "name": "topBid",
          "type": "uint256"
        },
        {
          "indexed": false,
          "name": "reservePrice",
          "type": "uint256"
        }
      ],
      "name": "AuctionEndedWithoutWinner",
      "type": "event"
    },
    {
      "anonymous": false,
      "inputs": [
        {
          "indexed": false,
          "name": "message",
          "type": "string"
        }
      ],
      "name": "LogFailure",
      "type": "event"
    },
    {
      "constant": false,
      "inputs": [
        {
          "name": "_title",
          "type": "string"
        },
        {
          "name": "_description",
          "type": "string"
        },
        {
          "name": "_contractAddressOfAsset",
          "type": "address"
        },
        {
          "name": "_recordIdOfAsset",
          "type": "string"
        },
        {
          "name": "_deadline",
          "type": "uint256"
        },
        {
          "name": "_startingPrice",
          "type": "uint256"
        },
        {
          "name": "_reservePrice",
          "type": "uint256"
        }
      ],
      "name": "createAuction",
      "outputs": [
        {
          "name": "auctionId",
          "type": "uint256"
        }
      ],
      "payable": true,
      "stateMutability": "payable",
      "type": "function"
    },
    {
      "constant": true,
      "inputs": [
        {
          "name": "idx",
          "type": "uint256"
        }
      ],
      "name": "getAuction",
      "outputs": [
        {
          "name": "",
          "type": "address"
        },
        {
          "name": "",
          "type": "address"
        },
        {
          "name": "",
          "type": "string"
        },
        {
          "name": "",
          "type": "string"
        },
        {
          "name": "",
          "type": "string"
        },
        {
          "name": "",
          "type": "uint256"
        },
        {
          "name": "",
          "type": "uint256"
        },
        {
          "name": "",
          "type": "uint256"
        },
        {
          "name": "",
          "type": "uint256"
        },
        {
          "name": "",
          "type": "uint256"
        }
      ],
      "payable": false,
      "stateMutability": "view",
      "type": "function"
    },
    {
      "constant": true,
      "inputs": [],
      "name": "getAuctionCount",
      "outputs": [
        {
          "name": "",
          "type": "uint256"
        }
      ],
      "payable": false,
      "stateMutability": "view",
      "type": "function"
    },
    {
      "constant": true,
      "inputs": [
        {
          "name": "idx",
          "type": "uint256"
        }
      ],
      "name": "getStatus",
      "outputs": [
        {
          "name": "",
          "type": "uint256"
        }
      ],
      "payable": false,
      "stateMutability": "view",
      "type": "function"
    },
    {
      "constant": true,
      "inputs": [
        {
          "name": "addr",
          "type": "address"
        }
      ],
      "name": "getAuctionsCountForUser",
      "outputs": [
        {
          "name": "",
          "type": "uint256"
        }
      ],
      "payable": false,
      "stateMutability": "view",
      "type": "function"
    },
    {
      "constant": true,
      "inputs": [
        {
          "name": "addr",
          "type": "address"
        },
        {
          "name": "idx",
          "type": "uint256"
        }
      ],
      "name": "getAuctionIdForUserAndIdx",
      "outputs": [
        {
          "name": "",
          "type": "uint256"
        }
      ],
      "payable": false,
      "stateMutability": "view",
      "type": "function"
    },
    {
      "constant": true,
      "inputs": [
        {
          "name": "_contractRecordConcat",
          "type": "string"
        }
      ],
      "name": "getActiveContractRecordConcat",
      "outputs": [
        {
          "name": "",
          "type": "bool"
        }
      ],
      "payable": false,
      "stateMutability": "view",
      "type": "function"
    },
    {
      "constant": false,
      "inputs": [
        {
          "name": "auctionId",
          "type": "uint256"
        }
      ],
      "name": "activateAuction",
      "outputs": [
        {
          "name": "",
          "type": "bool"
        }
      ],
      "payable": true,
      "stateMutability": "payable",
      "type": "function"
    },
    {
      "constant": false,
      "inputs": [
        {
          "name": "auctionId",
          "type": "uint256"
        }
      ],
      "name": "cancelAuction",
      "outputs": [
        {
          "name": "",
          "type": "bool"
        }
      ],
      "payable": true,
      "stateMutability": "payable",
      "type": "function"
    },
    {
      "constant": false,
      "inputs": [
        {
          "name": "auctionId",
          "type": "uint256"
        }
      ],
      "name": "getBidCountForAuction",
      "outputs": [
        {
          "name": "",
          "type": "uint256"
        }
      ],
      "payable": true,
      "stateMutability": "payable",
      "type": "function"
    },
    {
      "constant": true,
      "inputs": [
        {
          "name": "auctionId",
          "type": "uint256"
        },
        {
          "name": "idx",
          "type": "uint256"
        }
      ],
      "name": "getBidForAuctionByIdx",
      "outputs": [
        {
          "name": "bidder",
          "type": "address"
        },
        {
          "name": "amount",
          "type": "uint256"
        },
        {
          "name": "timestamp",
          "type": "uint256"
        }
      ],
      "payable": false,
      "stateMutability": "view",
      "type": "function"
    },
    {
      "constant": false,
      "inputs": [
        {
          "name": "auctionId",
          "type": "uint256"
        }
      ],
      "name": "placeBid",
      "outputs": [
        {
          "name": "success",
          "type": "bool"
        }
      ],
      "payable": true,
      "stateMutability": "payable",
      "type": "function"
    },
    {
      "constant": true,
      "inputs": [],
      "name": "getRefundValue",
      "outputs": [
        {
          "name": "",
          "type": "uint256"
        }
      ],
      "payable": false,
      "stateMutability": "view",
      "type": "function"
    },
    {
      "constant": false,
      "inputs": [],
      "name": "withdrawRefund",
      "outputs": [],
      "payable": true,
      "stateMutability": "payable",
      "type": "function"
    },
    {
      "constant": false,
      "inputs": [
        {
          "name": "auctionId",
          "type": "uint256"
        }
      ],
      "name": "endAuction",
      "outputs": [
        {
          "name": "success",
          "type": "bool"
        }
      ],
      "payable": true,
      "stateMutability": "payable",
      "type": "function"
    }
  ],
  "bytecode": "0x608060405234801561001057600080fd5b5060058054600160a060020a03191633600160a060020a0316179055612c518061003b6000396000f3006080604052600436106100fb5763ffffffff7c0100000000000000000000000000000000000000000000000000000000600035041663110f887481146101005780631313c7391461010a57806324a12edf1461014d5780634bc32ea21461018357806353488f0a1461018e578063571a26a0146101ad57806359e540951461035c5780635c622a0e1461037157806378bd79351461038957806388c93e221461053a57806396b5a7551461055e5780639979ef45146105695780639abb2c16146105745780639ecbab2314610595578063b982dc6f146105b9578063b9a2de3a1461069d578063c44e6640146106a8578063ede05887146106bd575b600080fd5b610108610716565b005b34801561011657600080fd5b50610125600435602435610774565b60408051600160a060020a039094168452602084019290925282820152519081900360600190f35b34801561015957600080fd5b50610171600160a060020a03600435166024356107f9565b60408051918252519081900360200190f35b610171600435610830565b61019960043561085d565b604080519115158252519081900360200190f35b3480156101b957600080fd5b506101c56004356109c3565b60408051600160a060020a03808e1682528c16602082015260a0810188905260c08101879052908101606082016080830160e0840188600281111561020657fe5b60ff16815260200187815260200186815260200185815260200184810384528d818151815260200191508051906020019080838360005b8381101561025557818101518382015260200161023d565b50505050905090810190601f1680156102825780820380516001836020036101000a031916815260200191505b5084810383528c5181528c516020918201918e019080838360005b838110156102b557818101518382015260200161029d565b50505050905090810190601f1680156102e25780820380516001836020036101000a031916815260200191505b5084810382528b5181528b516020918201918d019080838360005b838110156103155781810151838201526020016102fd565b50505050905090810190601f1680156103425780820380516001836020036101000a031916815260200191505b509e50505050505050505050505050505060405180910390f35b34801561036857600080fd5b50610171610bda565b34801561037d57600080fd5b50610171600435610bf7565b34801561039557600080fd5b506103a1600435610efc565b604051808b600160a060020a0316600160a060020a031681526020018a600160a060020a0316600160a060020a0316815260200180602001806020018060200189815260200188815260200187815260200186815260200185815260200184810384528c818151815260200191508051906020019080838360005b8381101561043457818101518382015260200161041c565b50505050905090810190601f1680156104615780820380516001836020036101000a031916815260200191505b5084810383528b5181528b516020918201918d019080838360005b8381101561049457818101518382015260200161047c565b50505050905090810190601f1680156104c15780820380516001836020036101000a031916815260200191505b5084810382528a5181528a516020918201918c019080838360005b838110156104f45781810151838201526020016104dc565b50505050905090810190601f1680156105215780820380516001836020036101000a031916815260200191505b509d505050505050505050505050505060405180910390f35b34801561054657600080fd5b50610171600160a060020a0360043516602435611270565b6101996004356112a0565b61019960043561168f565b34801561058057600080fd5b50610171600160a060020a0360043516611b5a565b3480156105a157600080fd5b50610171600160a060020a0360043516602435611b75565b6040805160206004803580820135601f810184900484028501840190955284845261017194369492936024939284019190819084018382808284375050604080516020601f89358b018035918201839004830284018301909452808352979a99988101979196509182019450925082915084018382808284375050604080516020601f818a01358b0180359182018390048302840183018552818452989b600160a060020a038b35169b909a90999401975091955091820193509150819084018382808284375094975050843595505050602083013592604001359150611b909050565b610199600435611f0a565b3480156106b457600080fd5b506101716125af565b3480156106c957600080fd5b506040805160206004803580820135601f81018490048402850184019095528484526101999436949293602493928401919081908401838280828437509497506125b59650505050505050565b600160a060020a033316600081815260046020526040808220805490839055905190929183156108fc02918491818181858888f19350505050151561077157600160a060020a03331660009081526004602052604090208190555b50565b6000806000806000808781548110151561078a57fe5b90600052602060002090600c02019150600182600b01805490500386111515156107b357600080fd5b600b82018054879081106107c357fe5b6000918252602090912060039091020180546001820154600290920154600160a060020a03909116999198509650945050505050565b600160a060020a038216600090815260016020526040812080548390811061081d57fe5b9060005260206000200154905092915050565b60008060008381548110151561084257fe5b60009182526020909120600b600c9092020101549392505050565b6000808233600160a060020a031660008281548110151561087a57fe5b60009182526020909120600c9091020154600160a060020a03161461089e57600080fd5b60008054859081106108ac57fe5b60009182526020918290206001600c90920201818101546002808301805460408051601f6000199884161561010002989098019092169390930495860187900487028101870190925284825292965061096b943094600160a060020a03909316939192908301828280156109615780601f1061093657610100808354040283529160200191610961565b820191906000526020600020905b81548152906001019060200180831161094457829003601f168201915b5050505050612620565b151561097657600080fd5b60078201805460ff191660011790556040805185815290517f415fa4117f5dfe2641cf0fcb94a0283d48bc66a1533068b26c09bed6cf5a97f9916020908290030190a15060019392505050565b60008054829081106109d157fe5b6000918252602091829020600c9091020180546001808301546002808501805460408051601f60001997841615610100029790970190921693909304948501889004880281018801909252838252600160a060020a0394851697509190931694909190830182828015610a855780601f10610a5a57610100808354040283529160200191610a85565b820191906000526020600020905b815481529060010190602001808311610a6857829003601f168201915b5050505060038301805460408051602060026001851615610100026000190190941693909304601f8101849004840282018401909252818152949594935090830182828015610b155780601f10610aea57610100808354040283529160200191610b15565b820191906000526020600020905b815481529060010190602001808311610af857829003601f168201915b5050505060048301805460408051602060026001851615610100026000190190941693909304601f8101849004840282018401909252818152949594935090830182828015610ba55780601f10610b7a57610100808354040283529160200191610ba5565b820191906000526020600020905b815481529060010190602001808311610b8857829003601f168201915b50505060058401546006850154600786015460088701546009880154600a909801549697939692955060ff909116935091908b565b600160a060020a0333166000908152600460205260409020545b90565b6000610c01612919565b6000805484908110610c0f57fe5b60009182526020918290206040805161018081018252600c939093029091018054600160a060020a039081168452600180830154909116848601526002808301805485516101009482161594909402600019011691909104601f8101879004870283018701855280835294959294938601939192909190830182828015610cd75780601f10610cac57610100808354040283529160200191610cd7565b820191906000526020600020905b815481529060010190602001808311610cba57829003601f168201915b505050918352505060038201805460408051602060026001851615610100026000190190941693909304601f8101849004840282018401909252818152938201939291830182828015610d6b5780601f10610d4057610100808354040283529160200191610d6b565b820191906000526020600020905b815481529060010190602001808311610d4e57829003601f168201915b505050918352505060048201805460408051602060026001851615610100026000190190941693909304601f8101849004840282018401909252818152938201939291830182828015610dff5780601f10610dd457610100808354040283529160200191610dff565b820191906000526020600020905b815481529060010190602001808311610de257829003601f168201915b50505091835250506005820154602082015260068201546040820152600782015460609091019060ff166002811115610e3457fe5b6002811115610e3f57fe5b81526020016008820154815260200160098201548152602001600a8201548152602001600b8201805480602002602001604051908101604052809291908181526020016000905b82821015610edb57600084815260209081902060408051606081018252600386029092018054600160a060020a0316835260018082015484860152600290910154918301919091529083529092019101610e86565b505050508152505090508060e001516002811115610ef557fe5b9392505050565b60008060608060606000806000806000610f14612919565b600080548d908110610f2257fe5b60009182526020918290206040805161018081018252600c939093029091018054600160a060020a039081168452600180830154909116848601526002808301805485516101009482161594909402600019011691909104601f8101879004870283018701855280835294959294938601939192909190830182828015610fea5780601f10610fbf57610100808354040283529160200191610fea565b820191906000526020600020905b815481529060010190602001808311610fcd57829003601f168201915b505050918352505060038201805460408051602060026001851615610100026000190190941693909304601f810184900484028201840190925281815293820193929183018282801561107e5780601f106110535761010080835404028352916020019161107e565b820191906000526020600020905b81548152906001019060200180831161106157829003601f168201915b505050918352505060048201805460408051602060026001851615610100026000190190941693909304601f81018490048402820184019092528181529382019392918301828280156111125780601f106110e757610100808354040283529160200191611112565b820191906000526020600020905b8154815290600101906020018083116110f557829003601f168201915b50505091835250506005820154602082015260068201546040820152600782015460609091019060ff16600281111561114757fe5b600281111561115257fe5b81526020016008820154815260200160098201548152602001600a8201548152602001600b8201805480602002602001604051908101604052809291908181526020016000905b828210156111ee57600084815260209081902060408051606081018252600386029092018054600160a060020a0316835260018082015484860152600290910154918301919091529083529092019101611199565b505050915250508051909150600160a060020a0316151561120e57600080fd5b806000015181602001518260400151836060015184608001518560c00151866101000151876101200151886101400151896101600151518797508696508595509a509a509a509a509a509a509a509a509a509a50509193959799509193959799565b60026020528160005260406000208181548110151561128b57fe5b90600052602060002001600091509150505481565b6000806000806112ae612998565b8533600160a060020a03166000828154811015156112c857fe5b60009182526020909120600c9091020154600160a060020a0316146112ec57600080fd5b60008054889081106112fa57fe5b60009182526020918290206001600c90920201818101546002808301805460408051601f60001998841615610100029890980190921693909304958601879004870281018701909252848252929950611384943094600160a060020a03909316939192908301828280156109615780601f1061093657610100808354040283529160200191610961565b151561138f57600080fd5b6009850154600a860154106113a357600080fd5b60018086015486546040805160e060020a63092b25e9028152600160a060020a0392831660248201819052600482019283526002808c0180546000199881161561010002989098019097160460448301819052939094169850889463092b25e99490939092918291606490910190859080156114605780601f1061143557610100808354040283529160200191611460565b820191906000526020600020905b81548152906001019060200180831161144357829003601f168201915b50509350505050602060405180830381600087803b15801561148157600080fd5b505af1158015611495573d6000803e3d6000fd5b505050506040513d60208110156114ab57600080fd5b505115156114b857600080fd5b600b8501549250600083111561164257600b8501805460001985019081106114dc57fe5b600091825260208083206040805160608101825260039485029092018054600160a060020a0390811680855260018084015486880181905260029094015486860152908852600490955291862080549091019055918901549095506115d5916115459116612729565b600289810180546040805160206001841615610100026000190190931694909404601f8101839004830285018301909152808452908301828280156115cb5780601f106115a0576101008083540402835291602001916115cb565b820191906000526020600020905b8154815290600101906020018083116115ae57829003601f168201915b50505050506127d0565b6040518082805190602001908083835b602083106116045780518252601f1990920191602091820191016115e5565b51815160209384036101000a60001901801990921691161790529201948552506040519384900301909220805460ff19169315159390931790925550505b6040805188815290517f2809c7e17bf978fbc7194c0a694b638c4215e9140cacc6c38ca36010b45697df9181900360200190a150505050600701805460ff19166002179055506001919050565b600080600080600061169f612998565b866116a8612919565b60008054839081106116b657fe5b60009182526020918290206040805161018081018252600c939093029091018054600160a060020a039081168452600180830154909116848601526002808301805485516101009482161594909402600019011691909104601f810187900487028301870185528083529495929493860193919290919083018282801561177e5780601f106117535761010080835404028352916020019161177e565b820191906000526020600020905b81548152906001019060200180831161176157829003601f168201915b505050918352505060038201805460408051602060026001851615610100026000190190941693909304601f81018490048402820184019092528181529382019392918301828280156118125780601f106117e757610100808354040283529160200191611812565b820191906000526020600020905b8154815290600101906020018083116117f557829003601f168201915b505050918352505060048201805460408051602060026001851615610100026000190190941693909304601f81018490048402820184019092528181529382019392918301828280156118a65780601f1061187b576101008083540402835291602001916118a6565b820191906000526020600020905b81548152906001019060200180831161188957829003601f168201915b50505091835250506005820154602082015260068201546040820152600782015460609091019060ff1660028111156118db57fe5b60028111156118e657fe5b81526020016008820154815260200160098201548152602001600a8201548152602001600b8201805480602002602001604051908101604052809291908181526020016000905b8282101561198257600084815260209081902060408051606081018252600386029092018054600160a060020a031683526001808201548486015260029091015491830191909152908352909201910161192d565b505050915250909150600190508160e00151600281111561199f57fe5b146119a957600080fd5b60c081015142116119b957600080fd5b600080543498508a9081106119ca57fe5b90600052602060002090600c020195508686600a01541015156119ec57600080fd5b600b8601805490611a0090600183016129c3565b945085600b0185815481101515611a1357fe5b6000918252602080832060039092029091018054600160a060020a0333811673ffffffffffffffffffffffffffffffffffffffff1990921691909117825560018083018c905542600280850191909155600a8c018d905583549092168552908352604084208054918201815584529183209091018b90559450851115611afb57600b860180546000198701908110611aa757fe5b600091825260208083206040805160608101825260039094029091018054600160a060020a031680855260018201548585018190526002909201548584015285526004909252909220805490920190915592505b83546001850154604080518c8152600160a060020a03909316602084015282810191909152517f0e54eff26401bf69b81b26f60bd85ef47f5d85275c1d268d84f68d6897431c479181900360600190a150600198975050505050505050565b600160a060020a031660009081526001602052604090205490565b60016020528160005260406000208181548110151561128b57fe5b600080611b9e338888612620565b1515611bf757604080516020808252601e908201527f53656c6c657220646f6573206e6f74206f776e20746869732061737365740000818301529051600080516020612c068339815191529181900360600190a1600080fd5b6000841080611c065750600083105b15611c8457604080516020808252602c908201527f5374617274696e675072696365206f7220526573657276655072696365207761818301527f732062656c6f77207a65726f000000000000000000000000000000000000000060608201529051600080516020612c068339815191529181900360800190a1600080fd5b6000805490611c9690600183016129f4565b9150600082815481101515611ca757fe5b6000918252602091829020600c909102018054600160a060020a0333811673ffffffffffffffffffffffffffffffffffffffff19928316178355600183018054918c16919092161790558751909250611d0891600284019190890190612a20565b508851611d1e90600383019060208c0190612a20565b508751611d3490600483019060208b0190612a20565b504260058201819055603c860201600682015560078101805460ff191690556008810184905560098101839055600a81018490558054600160a060020a0316600090815260016020818152604083208054808401825590845292209091018390556003611da9611da38a612729565b896127d0565b6040518082805190602001908083835b60208310611dd85780518252601f199092019160209182019101611db9565b6001836020036101000a038019825116818451168082178552505050505050905001915050908152602001604051809103902060006101000a81548160ff0219169083151502179055507f5bf34ed94988e5dcdc7d1faaa54eb1d3b55f45d5f11457e235afb21a8ebbe73c8282600301836008015484600901546040518085815260200180602001848152602001838152602001828103825285818154600181600116156101000203166002900481526020019150805460018160011615610100020316600290048015611eed5780601f10611ec257610100808354040283529160200191611eed565b820191906000526020600020905b815481529060010190602001808311611ed057829003601f168201915b50509550505050505060405180910390a150979650505050505050565b600080600080600085815481101515611f1f57fe5b6000918252602082206001600c9092020190810154909450600390611fab90611f5090600160a060020a0316612729565b600287810180546040805160206001841615610100026000190190931694909404601f8101839004830285018301909152808452908301828280156115cb5780601f106115a0576101008083540402835291602001916115cb565b6040518082805190602001908083835b60208310611fda5780518252601f199092019160209182019101611fbb565b51815160209384036101000a60001901801990921691161790529201948552506040519384900301909220805460ff1916931515939093179092555060019050600784015460ff16600281111561202d57fe5b146120ab57604080516020808252602b908201527f43616e206e6f7420656e6420616e2061756374696f6e2074686174277320616c818301527f726561647920656e64656400000000000000000000000000000000000000000060608201529051600080516020612c068339815191529181900360800190a1600080fd5b4283600601541015612130576040805160208082526037908201527f43616e206e6f7420656e6420616e2061756374696f6e2074686174206861736e818301527f2774206869742074686520646561646c696e652079657400000000000000000060608201529051600080516020612c068339815191529181900360800190a1600080fd5b6001830154600b840154600160a060020a039091169250151561226c5782546040805160e060020a63092b25e9028152600160a060020a03928316602482018190526004820192835260028088018054600019600182161561010002011691909104604484018190529487169463092b25e99491938291606490910190859080156121fc5780601f106121d1576101008083540402835291602001916121fc565b820191906000526020600020905b8154815290600101906020018083116121df57829003601f168201915b50509350505050602060405180830381600087803b15801561221d57600080fd5b505af1158015612231573d6000803e3d6000fd5b505050506040513d602081101561224757600080fd5b5051151561225457600080fd5b60078301805460ff19166002179055600193506125a7565b600b83018054600019810190811061228057fe5b90600052602060002090600302019050826009015483600a015410151561241d5780546040805160e060020a63092b25e9028152600160a060020a03928316602482018190526004820192835260028088018054600019600182161561010002011691909104604484018190529487169463092b25e99491938291606490910190859080156123505780601f1061232557610100808354040283529160200191612350565b820191906000526020600020905b81548152906001019060200180831161233357829003601f168201915b50509350505050602060405180830381600087803b15801561237157600080fd5b505af1158015612385573d6000803e3d6000fd5b505050506040513d602081101561239b57600080fd5b505115156123a857600080fd5b600a830180548454600160a060020a0390811660009081526004602090815260409182902080549094019093558454935481518a8152949092169284019290925282820152517fab41e3f06042d2db81478807ab10a02315433d6f63128f9e25858e37e2ac7dfe9181900360600190a1612593565b82546040805160e060020a63092b25e9028152600160a060020a03928316602482018190526004820192835260028088018054600019600182161561010002011691909104604484018190529487169463092b25e99491938291606490910190859080156124cc5780601f106124a1576101008083540402835291602001916124cc565b820191906000526020600020905b8154815290600101906020018083116124af57829003601f168201915b50509350505050602060405180830381600087803b1580156124ed57600080fd5b505af1158015612501573d6000803e3d6000fd5b505050506040513d602081101561251757600080fd5b5051151561252457600080fd5b600a830180548254600160a060020a03166000908152600460209081526040918290208054909301909255915460098601548351898152928301919091528183015290517f98a5874286afb2f907bb5ccecc1a560b7a2c0e9f1a48b09ea6c118fd70d1f0fc9181900360600190a15b60078301805460ff19166002179055600193505b505050919050565b60005490565b60006003826040518082805190602001908083835b602083106125e95780518252601f1990920191602091820191016125ca565b51815160209384036101000a600019018019909216911617905292019485525060405193849003019092205460ff16949350505050565b6040517fdf55b41a0000000000000000000000000000000000000000000000000000000081526020600482018181528351602484015283516000938693600160a060020a03808a16949086169363df55b41a9389938392604490920191908501908083838d5b8381101561269e578181015183820152602001612686565b50505050905090810190601f1680156126cb5780820380516001836020036101000a031916815260200191505b5092505050602060405180830381600087803b1580156126ea57600080fd5b505af11580156126fe573d6000803e3d6000fd5b505050506040513d602081101561271457600080fd5b5051600160a060020a03161495945050505050565b60408051601480825281830190925260609182916000916020820161028080388339019050509150600090505b60148110156127c9578060130360080260020a84600160a060020a031681151561277c57fe5b0460f860020a02828281518110151561279157fe5b9060200101907effffffffffffffffffffffffffffffffffffffffffffffffffffffffffffff1916908160001a905350600101612756565b5092915050565b60608060608060008087945086935083518551016040519080825280601f01601f191660200182016040528015612811578160200160208202803883390190505b50925060009150600090505b845181101561289357848181518110151561283457fe5b90602001015160f860020a900460f860020a02838380600101945081518110151561285b57fe5b9060200101907effffffffffffffffffffffffffffffffffffffffffffffffffffffffffffff1916908160001a90535060010161281d565b5060005b835181101561290d5783818151811015156128ae57fe5b90602001015160f860020a900460f860020a0283838060010194508151811015156128d557fe5b9060200101907effffffffffffffffffffffffffffffffffffffffffffffffffffffffffffff1916908160001a905350600101612897565b50909695505050505050565b610180604051908101604052806000600160a060020a031681526020016000600160a060020a0316815260200160608152602001606081526020016060815260200160008152602001600081526020016000600281111561297657fe5b8152602001600081526020016000815260200160008152602001606081525090565b6060604051908101604052806000600160a060020a0316815260200160008152602001600081525090565b8154818355818111156129ef576003028160030283600052602060002091820191016129ef9190612a9e565b505050565b8154818355818111156129ef57600c0281600c0283600052602060002091820191016129ef9190612add565b828054600181600116156101000203166002900490600052602060002090601f016020900481019282601f10612a6157805160ff1916838001178555612a8e565b82800160010185558215612a8e579182015b82811115612a8e578251825591602001919060010190612a73565b50612a9a929150612b86565b5090565b610bf491905b80821115612a9a57805473ffffffffffffffffffffffffffffffffffffffff191681556000600182018190556002820155600301612aa4565b610bf491905b80821115612a9a57805473ffffffffffffffffffffffffffffffffffffffff19908116825560018201805490911690556000612b226002830182612ba0565b612b30600383016000612ba0565b612b3e600483016000612ba0565b6000600583018190556006830181905560078301805460ff191690556008830181905560098301819055600a8301819055612b7d90600b840190612be4565b50600c01612ae3565b610bf491905b80821115612a9a5760008155600101612b8c565b50805460018160011615610100020316600290046000825580601f10612bc65750610771565b601f0160209004906000526020600020908101906107719190612b86565b50805460008255600302906000526020600020908101906107719190612a9e5600a2db52a45d71264723caeac03c235d51bb30cff5e1ac71c97a5842ec94fbb6afa165627a7a72305820bda6cc39b09fadf64a0f7c20a2d87111c7562c2c1b090d49243c690a4054d4490029",
  "source": "pragma solidity ^0.4.16;\n\n// This is the main contract that governs execution of auctions\n// of non-fungible on-chain assets. Any user can initiate an auction\n// for an item that conforms to the Asset interface described in\n// Asset.sol\n\nimport \"./Asset.sol\";\n\ncontract AuctionHouse {\n\n    struct Bid {\n        address bidder;\n        uint256 amount;\n        uint timestamp;\n    }\n\n    enum AuctionStatus {Pending, Active, Inactive}\n\n    struct Auction {\n        // Location and ownership information of the item for sale\n        address seller;\n        address contractAddress; // Contract where the item exists\n        string recordId;         // RecordID within the contract as per the Asset interface\n\n        // Auction metadata\n        string title;\n        string description;      // Optionally markdown formatted?\n        uint startTimeStamp;\n        uint expirationTimeStamp;\n        AuctionStatus status;\n\n        // Distribution bonus\n        // uint distributionCut;    // In percent, ie 10 is a 10% cut to the distribution address\n        // address distributionAddress; \n\n        // Pricing\n        uint256 startingPrice;   // In wei\n        uint256 reservePrice;\n        uint256 currentBid;\n\n        Bid[] bids;\n    }\n\n    Auction[] public auctions;          // All auctions\n    mapping(address => uint[]) public auctionsRunByUser; // Pointer to auctions index for auctions run by this user\n\n    mapping(address => uint[]) public auctionsBidOnByUser; // Pointer to auctions index for auctions this user has bid on\n\n    mapping(string => bool) activeContractRecordConcat;\n\n    mapping(address => uint) refunds;\n\n    address owner;\n\n    // Events\n    event AuctionCreated(uint id, string title, uint256 startingPrice, uint256 reservePrice);\n    event AuctionActivated(uint id);\n    event AuctionCancelled(uint id);\n    event BidPlaced(uint auctionId, address bidder, uint256 amount);\n    event AuctionEndedWithWinner(uint auctionId, address winningBidder, uint256 amount);\n    event AuctionEndedWithoutWinner(uint auctionId, uint256 topBid, uint256 reservePrice);\n\n    event LogFailure(string message);\n\n    modifier onlyOwner {\n        require (owner == msg.sender);\n        _;\n    }\n\n    modifier onlySeller(uint auctionId) {\n        require (auctions[auctionId].seller == msg.sender);\n        _;\n    }\n\n    modifier onlyLive(uint auctionId) {\n        Auction memory a = auctions[auctionId];\n        require (a.status == AuctionStatus.Active);\n\n        // Auction should not be over\n        require (a.expirationTimeStamp < now);\n        _;\n    }\n\n    constructor () public {\n        owner = msg.sender;\n    }\n\n    // Create an auction, transfer the item to this contract, activate the auction\n    function createAuction(\n                           string _title,\n                           string _description,\n                           address _contractAddressOfAsset,\n                           string _recordIdOfAsset,\n                           uint _deadline,   // in mins\n                           uint256 _startingPrice,\n                           uint256 _reservePrice\n                        //    uint _distributionCut,\n                        //    address _distributionCutAddress\n                           ) public payable returns (uint auctionId) {\n\n        // Check to see if the seller owns the asset at the contract\n        if (!partyOwnsAsset(msg.sender, _contractAddressOfAsset, _recordIdOfAsset)) {\n            emit LogFailure(\"Seller does not own this asset\");\n            revert();\n        }\n\n        // Price validations\n        if (_startingPrice < 0 || _reservePrice < 0) {\n            emit LogFailure(\"StartingPrice or ReservePrice was below zero\");\n            revert();\n        }\n\n        auctionId = auctions.length++;\n        Auction storage a = auctions[auctionId];\n        a.seller = msg.sender;\n        a.contractAddress = _contractAddressOfAsset;\n        a.recordId = _recordIdOfAsset;\n        a.title = _title;\n        a.description = _description;\n        a.startTimeStamp = now;\n        a.expirationTimeStamp = a.startTimeStamp + (_deadline * 60);\n        a.status = AuctionStatus.Pending;\n\n        a.startingPrice = _startingPrice;\n        a.reservePrice = _reservePrice;\n        a.currentBid = _startingPrice;\n\n        auctionsRunByUser[a.seller].push(auctionId);\n        activeContractRecordConcat[strConcat(addrToString(_contractAddressOfAsset), _recordIdOfAsset)] = true;\n\n        emit AuctionCreated(auctionId, a.title, a.startingPrice, a.reservePrice);\n\n        return auctionId;\n    }\n\n    function partyOwnsAsset(address _party, address _contract, string _recordId) internal view returns (bool success) {\n        Asset assetContract = Asset(_contract);\n        return assetContract.owner(_recordId) == _party;\n    }\n\n    /**\n     * The auction fields are indexed in the return val as follows\n     * [0]  -> Auction.seller\n     * [1]  -> Auction.contractAddress\n     * [2]  -> Auction.recordId\n     * [3]  -> Auction.title\n     * [4]  -> Auction.description\n     * [5]  -> Auction.expirationTimeStamp\n     * [8]  -> Auction.startingPrice\n     * [9] -> Auction.reservePrice\n     * [10] -> Auction.currentBid\n     * [11] -> Auction.bids.length      \n     * []  -> Auction.status (Not included right now)\n     */\n    function getAuction(uint idx) public view returns (address, address, string, string, string, uint, uint, uint256, uint256, uint) {\n        Auction memory a = auctions[idx];\n        require (a.seller != 0);\n\n        return (a.seller,\n                a.contractAddress,\n                a.recordId,\n                a.title,\n                a.description,\n                a.expirationTimeStamp,\n                a.startingPrice,\n                a.reservePrice,\n                a.currentBid,\n                a.bids.length\n                );\n    }\n\n    function getAuctionCount() public view returns (uint) {\n        return auctions.length;\n    }\n\n    function getStatus(uint idx) public view returns (uint) {\n        Auction memory a = auctions[idx];\n        return uint(a.status);\n    }\n\n    function getAuctionsCountForUser(address addr) public view returns (uint) {\n        return auctionsRunByUser[addr].length;\n    }\n\n    function getAuctionIdForUserAndIdx(address addr, uint idx) public view returns (uint) {\n        return auctionsRunByUser[addr][idx];\n    }\n\n    function getActiveContractRecordConcat(string _contractRecordConcat) public view returns (bool) {\n        return activeContractRecordConcat[_contractRecordConcat];\n    }\n\n    // Checks if this contract address is the owner of the item for the auction\n    function activateAuction(uint auctionId) onlySeller(auctionId) public payable returns (bool){\n        Auction storage a = auctions[auctionId];\n\n        require (partyOwnsAsset(this, a.contractAddress, a.recordId));\n\n        a.status = AuctionStatus.Active;\n        emit AuctionActivated(auctionId);\n        return true;\n    }\n\n    function cancelAuction(uint auctionId) onlySeller(auctionId) public payable returns (bool) {\n        Auction storage a = auctions[auctionId];\n\n        require (partyOwnsAsset(this, a.contractAddress, a.recordId));\n        require (a.currentBid < a.reservePrice);   // Can't cancel the auction if someone has already outbid the reserve.\n\n        Asset asset = Asset(a.contractAddress);\n        require(asset.setOwner(a.recordId, a.seller));\n\n        // Refund to the bidder\n        uint bidsLength = a.bids.length;\n        if (bidsLength > 0) {\n            Bid memory topBid = a.bids[bidsLength - 1];\n            refunds[topBid.bidder] += topBid.amount;\n\n            activeContractRecordConcat[strConcat(addrToString(a.contractAddress), a.recordId)] = false;\n        }\n\n        emit AuctionCancelled(auctionId);\n        a.status = AuctionStatus.Inactive;\n        return true;\n    }\n\n    /* BIDS */\n    function getBidCountForAuction(uint auctionId) public payable returns (uint) {\n        Auction storage a = auctions[auctionId];\n        return a.bids.length;\n    }\n\n    function getBidForAuctionByIdx(uint auctionId, uint idx) public view returns (address bidder, uint256 amount, uint timestamp) {\n        Auction storage a = auctions[auctionId];\n        require(idx <= a.bids.length - 1);\n\n        Bid storage b = a.bids[idx];\n        return (b.bidder, b.amount, b.timestamp);\n    }\n\n    function placeBid(uint auctionId) payable onlyLive(auctionId) public returns (bool success) {\n        uint256 amount = msg.value;\n        Auction storage a = auctions[auctionId];\n\n        require (a.currentBid < amount);\n\n        uint bidIdx = a.bids.length++;\n        Bid storage b = a.bids[bidIdx];\n        b.bidder = msg.sender;\n        b.amount = amount;\n        b.timestamp = now;\n        a.currentBid = amount;\n\n        auctionsBidOnByUser[b.bidder].push(auctionId);\n\n        // Log refunds for the previous bidder\n        if (bidIdx > 0) {\n            Bid memory previousBid = a.bids[bidIdx - 1];\n            refunds[previousBid.bidder] += previousBid.amount;\n        }\n\n        emit BidPlaced(auctionId, b.bidder, b.amount);\n        return true;\n    }\n\n    function getRefundValue() public view returns (uint) {\n        return refunds[msg.sender];\n    }\n\n    function withdrawRefund() public payable {\n        uint refund = refunds[msg.sender];\n        refunds[msg.sender] = 0;\n        if (!msg.sender.send(refund))\n            refunds[msg.sender] = refund;\n    }\n\n    function endAuction(uint auctionId) public payable returns (bool success) {\n        // Check if the auction is passed the end date\n        Auction storage a = auctions[auctionId];\n        activeContractRecordConcat[strConcat(addrToString(a.contractAddress), a.recordId)] = false;\n\n        // Make sure auction hasn't already been ended\n        if (a.status != AuctionStatus.Active) {\n            emit LogFailure(\"Can not end an auction that's already ended\");\n            revert();\n        }\n        \n        if (a.expirationTimeStamp < now) {\n            emit LogFailure(\"Can not end an auction that hasn't hit the deadline yet\");\n            revert(); \n        }\n\n        Asset asset = Asset(a.contractAddress);\n\n        // No bids, make the auction inactive\n        if (a.bids.length == 0) {\n            require(asset.setOwner(a.recordId, a.seller));\n            a.status = AuctionStatus.Inactive;\n            return true;\n        }\n\n        Bid storage topBid = a.bids[a.bids.length - 1];\n\n        // If the auction hit its reserve price\n        if (a.currentBid >= a.reservePrice) {\n            require(asset.setOwner(a.recordId, topBid.bidder)); // Set the items new owner\n\n            // refunds[a.distributionAddress] += distributionShare;\n            refunds[a.seller] += a.currentBid;\n\n            emit AuctionEndedWithWinner(auctionId, topBid.bidder, a.currentBid);\n        } else {\n            // Return the item to the owner and the money to the top bidder\n            require(asset.setOwner(a.recordId, a.seller));\n\n            refunds[topBid.bidder] += a.currentBid;\n\n            emit AuctionEndedWithoutWinner(auctionId, a.currentBid, a.reservePrice);\n        }\n\n        a.status = AuctionStatus.Inactive;\n        return true;\n    }\n\n    function strConcat(string _a, string _b) internal pure returns (string) {\n        bytes memory _ba = bytes(_a);\n        bytes memory _bb = bytes(_b);\n        bytes memory ab = new bytes (_ba.length + _bb.length);\n        uint k = 0;\n        for (uint i = 0; i < _ba.length; i++) ab[k++] = _ba[i];\n        for (i = 0; i < _bb.length; i++) ab[k++] = _bb[i];\n        return string(ab);\n    }\n\n    function addrToString(address x) internal pure returns (string) {\n        bytes memory b = new bytes(20);\n        for (uint i = 0; i < 20; i++)\n            b[i] = byte(uint8(uint(x) / (2**(8*(19 - i)))));\n        return string(b);\n    }\n}\n",
  "sourcePath": "/Volumes/Backup/Backup/MyProject/Blockchain/Auction/contracts/AuctionHouse.sol",
  "compiler": {
    "name": "solc",
    "version": "0.4.23+commit.124ca40d.Emscripten.clang"
  },
  "schemaVersion": "2.0.0",
  "updatedAt": "2018-09-09T15:48:16.210Z"
}