{
  "contractName": "SampleName",
  "abi": [
    {
      "constant": true,
      "inputs": [
        {
          "name": "_recordId",
          "type": "string"
        }
      ],
      "name": "owner",
      "outputs": [
        {
          "name": "ownerAddress",
          "type": "address"
        }
      ],
      "payable": false,
      "stateMutability": "view",
      "type": "function"
    },
    {
      "constant": false,
      "inputs": [
        {
          "name": "_recordId",
          "type": "string"
        },
        {
          "name": "_newOwner",
          "type": "address"
        }
      ],
      "name": "setOwner",
      "outputs": [
        {
          "name": "success",
          "type": "bool"
        }
      ],
      "payable": true,
      "stateMutability": "payable",
      "type": "function"
    },
    {
      "constant": false,
      "inputs": [
        {
          "name": "_recordId",
          "type": "string"
        },
        {
          "name": "_owner",
          "type": "address"
        },
        {
          "name": "_name",
          "type": "string"
        },
        {
          "name": "_walletAddress",
          "type": "address"
        }
      ],
      "name": "addRecord",
      "outputs": [
        {
          "name": "sufficient",
          "type": "bool"
        }
      ],
      "payable": true,
      "stateMutability": "payable",
      "type": "function"
    },
    {
      "constant": true,
      "inputs": [
        {
          "name": "_recordId",
          "type": "string"
        }
      ],
      "name": "getWalletAddress",
      "outputs": [
        {
          "name": "walletAddress",
          "type": "address"
        }
      ],
      "payable": false,
      "stateMutability": "view",
      "type": "function"
    },
    {
      "constant": false,
      "inputs": [
        {
          "name": "_recordId",
          "type": "string"
        },
        {
          "name": "_newWalletAddress",
          "type": "address"
        }
      ],
      "name": "updateRecordWalletAddress",
      "outputs": [
        {
          "name": "success",
          "type": "bool"
        }
      ],
      "payable": true,
      "stateMutability": "payable",
      "type": "function"
    }
  ],
  "bytecode": "0x608060405234801561001057600080fd5b50610923806100206000396000f30060806040526004361061006c5763ffffffff7c010000000000000000000000000000000000000000000000000000000060003504166308f206308114610071578063092b25e9146100e65780633acce2b2146101515780638f88110d146101f5578063df55b41a1461024c575b600080fd5b34801561007d57600080fd5b506040805160206004803580820135601f81018490048402850184019095528484526100ca9436949293602493928401919081908401838280828437509497506102a59650505050505050565b60408051600160a060020a039092168252519081900360200190f35b6040805160206004803580820135601f810184900484028501840190955284845261013d94369492936024939284019190819084018382808284375094975050509235600160a060020a0316935061031892505050565b604080519115158252519081900360200190f35b6040805160206004803580820135601f810184900484028501840190955284845261013d94369492936024939284019190819084018382808284375050604080516020601f818a01358b0180359182018390048302840183018552818452989b600160a060020a038b35169b909a90999401975091955091820193509150819084018382808284375094975050509235600160a060020a0316935061043592505050565b6040805160206004803580820135601f810184900484028501840190955284845261013d94369492936024939284019190819084018382808284375094975050509235600160a060020a0316935061065492505050565b34801561025857600080fd5b506040805160206004803580820135601f81018490048402850184019095528484526100ca9436949293602493928401919081908401838280828437509497506107ec9650505050505050565b600080826040518082805190602001908083835b602083106102d85780518252601f1990920191602091820191016102b9565b51815160209384036101000a6000190180199092169116179052920194855250604051938490030190922060020154600160a060020a0316949350505050565b60008233600160a060020a03166000826040518082805190602001908083835b602083106103575780518252601f199092019160209182019101610338565b51815160209384036101000a6000190180199092169116179052920194855250604051938490030190922054600160a060020a031692909214915061039d905057600080fd5b826000856040518082805190602001908083835b602083106103d05780518252601f1990920191602091820191016103b1565b51815160209384036101000a60001901801990921691161790529201948552506040519384900301909220805473ffffffffffffffffffffffffffffffffffffffff1916600160a060020a0394909416939093179092555060019250505b5092915050565b600080856040518082805190602001908083835b602083106104685780518252601f199092019160209182019101610449565b51815160209384036101000a6000190180199092169116179052920194855250604051938490030190922054600160a060020a03161591506104ae90505750600061064c565b836000866040518082805190602001908083835b602083106104e15780518252601f1990920191602091820191016104c2565b51815160209384036101000a60001901801990921691161790529201948552506040519384900381018420805473ffffffffffffffffffffffffffffffffffffffff1916600160a060020a039690961695909517909455505086518592600092899290918291908401908083835b6020831061056e5780518252601f19909201916020918201910161054f565b6001836020036101000a038019825116818451168082178552505050505050905001915050908152602001604051809103902060010190805190602001906105b792919061085c565b50816000866040518082805190602001908083835b602083106105eb5780518252601f1990920191602091820191016105cc565b51815160209384036101000a60001901801990921691161790529201948552506040519384900301909220600201805473ffffffffffffffffffffffffffffffffffffffff1916600160a060020a0394909416939093179092555060019150505b949350505050565b60008233600160a060020a03166000826040518082805190602001908083835b602083106106935780518252601f199092019160209182019101610674565b51815160209384036101000a6000190180199092169116179052920194855250604051938490030190922054600160a060020a03169290921491506106d9905057600080fd5b6000846040518082805190602001908083835b6020831061070b5780518252601f1990920191602091820191016106ec565b51815160209384036101000a6000190180199092169116179052920194855250604051938490030190922054600160a060020a0316151591506107539050576000915061042e565b826000856040518082805190602001908083835b602083106107865780518252601f199092019160209182019101610767565b51815160209384036101000a60001901801990921691161790529201948552506040519384900301909220600201805473ffffffffffffffffffffffffffffffffffffffff1916600160a060020a03949094169390931790925550600195945050505050565b600080826040518082805190602001908083835b6020831061081f5780518252601f199092019160209182019101610800565b51815160209384036101000a6000190180199092169116179052920194855250604051938490030190922054600160a060020a0316949350505050565b828054600181600116156101000203166002900490600052602060002090601f016020900481019282601f1061089d57805160ff19168380011785556108ca565b828001600101855582156108ca579182015b828111156108ca5782518255916020019190600101906108af565b506108d69291506108da565b5090565b6108f491905b808211156108d657600081556001016108e0565b905600a165627a7a72305820a892630b172db01d9f69a2ce243623a5c89f9a8c9224e6ecccb4218f205b82000029",
  "source": "pragma solidity ^0.4.16;\n\n// Sample implementation of a non fungible asset, which is a name resolved to\n// an ethereum wallet address\n\nimport \"./Asset.sol\";\n\ncontract SampleName is Asset {\n    struct Record {\n        address owner;\n        string name;\n        address walletAddress;\n    }\n\n    mapping(string => Record) records;  // Map an ID to the record\n\n    modifier onlyOwner(string _recordId) {\n        require (records[_recordId].owner == msg.sender);\n        _;\n    }\n\n    function owner(string _recordId) public view returns (address ownerAddress) {\n        return records[_recordId].owner;\n    }\n\n    function setOwner(string _recordId, address _newOwner) onlyOwner(_recordId) public payable returns (bool success) {\n        records[_recordId].owner = _newOwner;\n        return true;\n    }\n\n    function addRecord(string _recordId, address _owner, string _name, address _walletAddress) public payable returns (bool sufficient) {\n        if (records[_recordId].owner != 0) {\n            // If a record with this name already exists\n            return false;\n        }\n\n        records[_recordId].owner = _owner;\n        records[_recordId].name = _name;\n        records[_recordId].walletAddress = _walletAddress;\n        return true;\n    }\n\n    function getWalletAddress(string _recordId) public view returns (address walletAddress) {\n        return records[_recordId].walletAddress;\n    }\n\n    // Allow the owner to update the wallet address of the record\n    function updateRecordWalletAddress(string _recordId, address _newWalletAddress) onlyOwner(_recordId) public payable returns (bool success) {\n        if (records[_recordId].owner == 0) {\n            // We don't know this record\n            return false;\n        }\n\n        records[_recordId].walletAddress = _newWalletAddress;\n        return true;\t\n    }\n}\n",
  "sourcePath": "/Volumes/Backup/Backup/MyProject/Blockchain/Auction/contracts/SampleName.sol",
  "compiler": {
    "name": "solc",
    "version": "0.4.23+commit.124ca40d.Emscripten.clang"
  },
  "schemaVersion": "2.0.0",
  "updatedAt": "2018-09-09T15:48:16.193Z"
}